{
  "contractName": "ERC721Enumerable",
  "abi": [
    {
      "inputs": [],
      "stateMutability": "nonpayable",
      "type": "constructor"
    },
    {
      "anonymous": false,
      "inputs": [
        {
          "indexed": true,
          "internalType": "address",
          "name": "_owner",
          "type": "address"
        },
        {
          "indexed": true,
          "internalType": "address",
          "name": "_approved",
          "type": "address"
        },
        {
          "indexed": true,
          "internalType": "uint256",
          "name": "_tokenId",
          "type": "uint256"
        }
      ],
      "name": "Approval",
      "type": "event"
    },
    {
      "anonymous": false,
      "inputs": [
        {
          "indexed": true,
          "internalType": "address",
          "name": "_from",
          "type": "address"
        },
        {
          "indexed": true,
          "internalType": "address",
          "name": "_to",
          "type": "address"
        },
        {
          "indexed": true,
          "internalType": "uint256",
          "name": "_tokenId",
          "type": "uint256"
        }
      ],
      "name": "Transfer",
      "type": "event"
    },
    {
      "inputs": [
        {
          "internalType": "address",
          "name": "_owner",
          "type": "address"
        }
      ],
      "name": "balanceOf",
      "outputs": [
        {
          "internalType": "uint256",
          "name": "",
          "type": "uint256"
        }
      ],
      "stateMutability": "view",
      "type": "function"
    },
    {
      "inputs": [
        {
          "internalType": "uint256",
          "name": "_tokenId",
          "type": "uint256"
        }
      ],
      "name": "ownerOf",
      "outputs": [
        {
          "internalType": "address",
          "name": "",
          "type": "address"
        }
      ],
      "stateMutability": "view",
      "type": "function"
    },
    {
      "inputs": [
        {
          "internalType": "bytes4",
          "name": "interfaceId",
          "type": "bytes4"
        }
      ],
      "name": "supportsInterface",
      "outputs": [
        {
          "internalType": "bool",
          "name": "",
          "type": "bool"
        }
      ],
      "stateMutability": "view",
      "type": "function"
    },
    {
      "inputs": [
        {
          "internalType": "address",
          "name": "_from",
          "type": "address"
        },
        {
          "internalType": "address",
          "name": "_to",
          "type": "address"
        },
        {
          "internalType": "uint256",
          "name": "_tokenId",
          "type": "uint256"
        }
      ],
      "name": "transferFrom",
      "outputs": [],
      "stateMutability": "nonpayable",
      "type": "function"
    },
    {
      "inputs": [
        {
          "internalType": "uint256",
          "name": "index",
          "type": "uint256"
        }
      ],
      "name": "tokenByIndex",
      "outputs": [
        {
          "internalType": "uint256",
          "name": "",
          "type": "uint256"
        }
      ],
      "stateMutability": "view",
      "type": "function"
    },
    {
      "inputs": [
        {
          "internalType": "address",
          "name": "owner",
          "type": "address"
        },
        {
          "internalType": "uint256",
          "name": "index",
          "type": "uint256"
        }
      ],
      "name": "tokenOfOwnerByIndex",
      "outputs": [
        {
          "internalType": "uint256",
          "name": "",
          "type": "uint256"
        }
      ],
      "stateMutability": "view",
      "type": "function"
    },
    {
      "inputs": [],
      "name": "totalSupply",
      "outputs": [
        {
          "internalType": "uint256",
          "name": "",
          "type": "uint256"
        }
      ],
      "stateMutability": "view",
      "type": "function"
    }
  ],
  "bytecode": "0x608060405234801561001057600080fd5b506100407f01ffc9a7a5cef8baa21ed3c5c0d7e23accb804b619e9333b597f47a0d84076e261012b60201b60201c565b6100b37f22c82707ba960a14c7592ffb6b8cfaa073fed0048a84cc7fa41f6b5bd8e7f2e47f3a6eb71757dfc6e784c1459d26270140c2c147d95ca985c80026fc5301c3eca17f8a7e378434598edc36d108689a030cbc9d7d465de4f74c71bae1028eed6a881b181861012b60201b60201c565b6101267febb0fb4f9e2627dbad3e9c12b5454fd599da265d213f7b5a193f4102eefd66007f6da5e1284143cdd2d15038a59bde3be031250f00291d64494c12d967b3a4e0c37fc53637662700e6c65104059db8bba34439e0c32483ab7c34e3ccae52c7395495181861012b60201b60201c565b61027d565b63ffffffff60e01b817bffffffffffffffffffffffffffffffffffffffffffffffffffffffff19161415610194576040517f08c379a000000000000000000000000000000000000000000000000000000000815260040161018b9061025d565b60405180910390fd5b6001600080837bffffffffffffffffffffffffffffffffffffffffffffffffffffffff19167bffffffffffffffffffffffffffffffffffffffffffffffffffffffff1916815260200190815260200160002060006101000a81548160ff02191690831515021790555050565b600082825260208201905092915050565b7f696e76616c696420696e74657266616365207265717565737400000000000000600082015250565b6000610247601983610200565b915061025282610211565b602082019050919050565b600060208201905081810360008301526102768161023a565b9050919050565b610d538061028c6000396000f3fe608060405234801561001057600080fd5b506004361061007d5760003560e01c80632f745c591161005b5780632f745c59146100ec5780634f6ccce71461011c5780636352211e1461014c57806370a082311461017c5761007d565b806301ffc9a71461008257806318160ddd146100b257806323b872dd146100d0575b600080fd5b61009c6004803603810190610097919061075e565b6101ac565b6040516100a991906107a6565b60405180910390f35b6100ba610213565b6040516100c791906107da565b60405180910390f35b6100ea60048036038101906100e5919061087f565b610220565b005b610106600480360381019061010191906108d2565b610230565b60405161011391906107da565b60405180910390f35b61013660048036038101906101319190610912565b6102e0565b60405161014391906107da565b60405180910390f35b61016660048036038101906101619190610912565b610351565b604051610173919061094e565b60405180910390f35b61019660048036038101906101919190610969565b610403565b6040516101a391906107da565b60405180910390f35b6000806000837bffffffffffffffffffffffffffffffffffffffffffffffffffffffff19167bffffffffffffffffffffffffffffffffffffffffffffffffffffffff1916815260200190815260200160002060009054906101000a900460ff169050919050565b6000600380549050905090565b61022b8383836104bb565b505050565b600061023b83610403565b821061027c576040517f08c379a0000000000000000000000000000000000000000000000000000000008152600401610273906109f3565b60405180910390fd5b600560008473ffffffffffffffffffffffffffffffffffffffff1673ffffffffffffffffffffffffffffffffffffffff16815260200190815260200160002082815481106102cd576102cc610a13565b5b9060005260206000200154905092915050565b60006102ea610213565b821061032b576040517f08c379a000000000000000000000000000000000000000000000000000000000815260040161032290610a8e565b60405180910390fd5b6003828154811061033f5761033e610a13565b5b90600052602060002001549050919050565b6000806001600084815260200190815260200160002060009054906101000a900473ffffffffffffffffffffffffffffffffffffffff169050600073ffffffffffffffffffffffffffffffffffffffff168173ffffffffffffffffffffffffffffffffffffffff1614156103fa576040517f08c379a00000000000000000000000000000000000000000000000000000000081526004016103f190610b20565b60405180910390fd5b80915050919050565b60008073ffffffffffffffffffffffffffffffffffffffff168273ffffffffffffffffffffffffffffffffffffffff161415610474576040517f08c379a000000000000000000000000000000000000000000000000000000000815260040161046b90610b20565b60405180910390fd5b600260008373ffffffffffffffffffffffffffffffffffffffff1673ffffffffffffffffffffffffffffffffffffffff168152602001908152602001600020549050919050565b600073ffffffffffffffffffffffffffffffffffffffff168273ffffffffffffffffffffffffffffffffffffffff16141561052b576040517f08c379a000000000000000000000000000000000000000000000000000000000815260040161052290610bb2565b60405180910390fd5b8273ffffffffffffffffffffffffffffffffffffffff1661054b82610351565b73ffffffffffffffffffffffffffffffffffffffff16146105a1576040517f08c379a000000000000000000000000000000000000000000000000000000000815260040161059890610c44565b60405180910390fd5b6001600260008573ffffffffffffffffffffffffffffffffffffffff1673ffffffffffffffffffffffffffffffffffffffff16815260200190815260200160002060008282546105f19190610c93565b925050819055506001600260008473ffffffffffffffffffffffffffffffffffffffff1673ffffffffffffffffffffffffffffffffffffffff16815260200190815260200160002060008282546106489190610cc7565b92505081905550816001600083815260200190815260200160002060006101000a81548173ffffffffffffffffffffffffffffffffffffffff021916908373ffffffffffffffffffffffffffffffffffffffff160217905550808273ffffffffffffffffffffffffffffffffffffffff168473ffffffffffffffffffffffffffffffffffffffff167fddf252ad1be2c89b69c2b068fc378daa952ba7f163c4a11628f55a4df523b3ef60405160405180910390a4505050565b600080fd5b60007fffffffff0000000000000000000000000000000000000000000000000000000082169050919050565b61073b81610706565b811461074657600080fd5b50565b60008135905061075881610732565b92915050565b60006020828403121561077457610773610701565b5b600061078284828501610749565b91505092915050565b60008115159050919050565b6107a08161078b565b82525050565b60006020820190506107bb6000830184610797565b92915050565b6000819050919050565b6107d4816107c1565b82525050565b60006020820190506107ef60008301846107cb565b92915050565b600073ffffffffffffffffffffffffffffffffffffffff82169050919050565b6000610820826107f5565b9050919050565b61083081610815565b811461083b57600080fd5b50565b60008135905061084d81610827565b92915050565b61085c816107c1565b811461086757600080fd5b50565b60008135905061087981610853565b92915050565b60008060006060848603121561089857610897610701565b5b60006108a68682870161083e565b93505060206108b78682870161083e565b92505060406108c88682870161086a565b9150509250925092565b600080604083850312156108e9576108e8610701565b5b60006108f78582860161083e565b92505060206109088582860161086a565b9150509250929050565b60006020828403121561092857610927610701565b5b60006109368482850161086a565b91505092915050565b61094881610815565b82525050565b6000602082019050610963600083018461093f565b92915050565b60006020828403121561097f5761097e610701565b5b600061098d8482850161083e565b91505092915050565b600082825260208201905092915050565b7f6f776e657220696e646578206973206f7574206f6620626f756e647321000000600082015250565b60006109dd601d83610996565b91506109e8826109a7565b602082019050919050565b60006020820190508181036000830152610a0c816109d0565b9050919050565b7f4e487b7100000000000000000000000000000000000000000000000000000000600052603260045260246000fd5b7f676c6f62616c20696e646578206973206f7574206f6620626f756e6473000000600082015250565b6000610a78601d83610996565b9150610a8382610a42565b602082019050919050565b60006020820190508181036000830152610aa781610a6b565b9050919050565b7f6f776e657220717565727920666f72206e6f6e206578697374656e7420746f6b60008201527f656e000000000000000000000000000000000000000000000000000000000000602082015250565b6000610b0a602283610996565b9150610b1582610aae565b604082019050919050565b60006020820190508181036000830152610b3981610afd565b9050919050565b7f4572726f72202d20455243373231205472616e7366657220746f20746865207a60008201527f65726f2061646472657373000000000000000000000000000000000000000000602082015250565b6000610b9c602b83610996565b9150610ba782610b40565b604082019050919050565b60006020820190508181036000830152610bcb81610b8f565b9050919050565b7f547279696e6720746f207472616e73666572206120746f6b656e20746f20746860008201527f652061646472657373206f6620746865206f776e657200000000000000000000602082015250565b6000610c2e603683610996565b9150610c3982610bd2565b604082019050919050565b60006020820190508181036000830152610c5d81610c21565b9050919050565b7f4e487b7100000000000000000000000000000000000000000000000000000000600052601160045260246000fd5b6000610c9e826107c1565b9150610ca9836107c1565b925082821015610cbc57610cbb610c64565b5b828203905092915050565b6000610cd2826107c1565b9150610cdd836107c1565b9250827fffffffffffffffffffffffffffffffffffffffffffffffffffffffffffffffff03821115610d1257610d11610c64565b5b82820190509291505056fea264697066735822122029e1fa7b37f5c862dcf19bbf7a14bfbc874f15f8e584082e5bfbd296c9e39a8f64736f6c63430008090033",
  "immutableReferences": {},
  "source": "// SPDX-License-Identifier: MIT\r\npragma solidity ^0.8.0;\r\n\r\nimport \"./ERC721.sol\";\r\n\r\nimport './interfaces/IERC721Enumerable.sol';\r\n\r\ncontract ERC721Enumerable is ERC721, IERC721Enumerable {\r\n    \r\n    uint256[] private _allTokens;\r\n    mapping(uint256 => uint256) private _allTokensIndex;\r\n    mapping(address => uint256[]) private _ownedTokens;\r\n    mapping(uint256 => uint256) private _ownedTokensIndex;\r\n\r\n    constructor() {\r\n        _registerInterface(bytes4(keccak256('totalSupply(bytes4)')^\r\n        keccak256('tokenByIndex(bytes4)')^keccak256('tokenOfByOwnerByIndex(bytes4)')));\r\n    }\r\n\r\n    function _mint(address to, uint tokenId) internal override (ERC721) {\r\n        super._mint(to, tokenId);\r\n        _addTokensToAllTokenEnumeration(tokenId);\r\n        _addTokensToOwnerEnumeration(to, tokenId);\r\n    }\r\n    \r\n    function _addTokensToAllTokenEnumeration(uint256 tokenId) private {\r\n        _allTokensIndex[tokenId] = _allTokens.length;\r\n        _allTokens.push(tokenId);\r\n    }\r\n    \r\n    function _addTokensToOwnerEnumeration(address to, uint256 tokenId) private {\r\n        _ownedTokensIndex[tokenId] = _allTokens.length;\r\n        _ownedTokens[to].push(tokenId);\r\n    }\r\n    \r\n    function tokenByIndex(uint index) public override view  returns(uint) {\r\n        require(index < totalSupply(), 'global index is out of bounds');\r\n        return _allTokens[index];    \r\n    }\r\n    \r\n    function tokenOfOwnerByIndex(address owner, uint index) public override view returns (uint256) {\r\n        require(index < balanceOf(owner), 'owner index is out of bounds!');\r\n        return _ownedTokens[owner][index];\r\n    }\r\n    \r\n    function totalSupply() public override view  returns(uint256) {\r\n        return _allTokens.length;\r\n    }\r\n    \r\n}\r\n",
  "sourcePath": "C:\\Dev\\nft-marketplace-starter-kit\\src\\contracts\\ERC721Enumerable.sol",
  "compiler": {
    "name": "solc",
    "version": "0.8.9+commit.e5eed63a.Emscripten.clang"
  },
  "schemaVersion": "3.4.3",
  "updatedAt": "2021-10-26T17:03:35.060Z",
  "devdoc": {
    "kind": "dev",
    "methods": {},
    "version": 1
  },
  "userdoc": {
    "kind": "user",
    "methods": {},
    "version": 1
  }
}