{
  "contractName": "ERC721Enumerable",
  "abi": [
    {
      "inputs": [],
      "stateMutability": "nonpayable",
      "type": "constructor"
    },
    {
      "anonymous": false,
      "inputs": [
        {
          "indexed": true,
          "internalType": "address",
          "name": "_owner",
          "type": "address"
        },
        {
          "indexed": true,
          "internalType": "address",
          "name": "_approved",
          "type": "address"
        },
        {
          "indexed": true,
          "internalType": "uint256",
          "name": "_tokenId",
          "type": "uint256"
        }
      ],
      "name": "Approval",
      "type": "event"
    },
    {
      "anonymous": false,
      "inputs": [
        {
          "indexed": true,
          "internalType": "address",
          "name": "_from",
          "type": "address"
        },
        {
          "indexed": true,
          "internalType": "address",
          "name": "_to",
          "type": "address"
        },
        {
          "indexed": true,
          "internalType": "uint256",
          "name": "_tokenId",
          "type": "uint256"
        }
      ],
      "name": "Transfer",
      "type": "event"
    },
    {
      "inputs": [
        {
          "internalType": "address",
          "name": "_owner",
          "type": "address"
        }
      ],
      "name": "balanceOf",
      "outputs": [
        {
          "internalType": "uint256",
          "name": "",
          "type": "uint256"
        }
      ],
      "stateMutability": "view",
      "type": "function"
    },
    {
      "inputs": [
        {
          "internalType": "uint256",
          "name": "_tokenId",
          "type": "uint256"
        }
      ],
      "name": "ownerOf",
      "outputs": [
        {
          "internalType": "address",
          "name": "",
          "type": "address"
        }
      ],
      "stateMutability": "view",
      "type": "function"
    },
    {
      "inputs": [
        {
          "internalType": "bytes4",
          "name": "interfaceId",
          "type": "bytes4"
        }
      ],
      "name": "supportsInterface",
      "outputs": [
        {
          "internalType": "bool",
          "name": "",
          "type": "bool"
        }
      ],
      "stateMutability": "view",
      "type": "function"
    },
    {
      "inputs": [
        {
          "internalType": "address",
          "name": "_from",
          "type": "address"
        },
        {
          "internalType": "address",
          "name": "_to",
          "type": "address"
        },
        {
          "internalType": "uint256",
          "name": "_tokenId",
          "type": "uint256"
        }
      ],
      "name": "transferFrom",
      "outputs": [],
      "stateMutability": "nonpayable",
      "type": "function"
    },
    {
      "inputs": [
        {
          "internalType": "uint256",
          "name": "index",
          "type": "uint256"
        }
      ],
      "name": "tokenByIndex",
      "outputs": [
        {
          "internalType": "uint256",
          "name": "",
          "type": "uint256"
        }
      ],
      "stateMutability": "view",
      "type": "function"
    },
    {
      "inputs": [
        {
          "internalType": "address",
          "name": "owner",
          "type": "address"
        },
        {
          "internalType": "uint256",
          "name": "index",
          "type": "uint256"
        }
      ],
      "name": "tokenOfOwnerByIndex",
      "outputs": [
        {
          "internalType": "uint256",
          "name": "",
          "type": "uint256"
        }
      ],
      "stateMutability": "view",
      "type": "function"
    },
    {
      "inputs": [],
      "name": "totalSupply",
      "outputs": [
        {
          "internalType": "uint256",
          "name": "",
          "type": "uint256"
        }
      ],
      "stateMutability": "view",
      "type": "function"
    }
  ],
  "bytecode": "0x608060405234801561001057600080fd5b506100407f01ffc9a7a5cef8baa21ed3c5c0d7e23accb804b619e9333b597f47a0d84076e261012b60201b60201c565b6100b37f22c82707ba960a14c7592ffb6b8cfaa073fed0048a84cc7fa41f6b5bd8e7f2e47f3a6eb71757dfc6e784c1459d26270140c2c147d95ca985c80026fc5301c3eca17f8a7e378434598edc36d108689a030cbc9d7d465de4f74c71bae1028eed6a881b181861012b60201b60201c565b6101267febb0fb4f9e2627dbad3e9c12b5454fd599da265d213f7b5a193f4102eefd66007f6da5e1284143cdd2d15038a59bde3be031250f00291d64494c12d967b3a4e0c37fc53637662700e6c65104059db8bba34439e0c32483ab7c34e3ccae52c7395495181861012b60201b60201c565b61027d565b63ffffffff60e01b817bffffffffffffffffffffffffffffffffffffffffffffffffffffffff19161415610194576040517f08c379a000000000000000000000000000000000000000000000000000000000815260040161018b9061025d565b60405180910390fd5b6001600080837bffffffffffffffffffffffffffffffffffffffffffffffffffffffff19167bffffffffffffffffffffffffffffffffffffffffffffffffffffffff1916815260200190815260200160002060006101000a81548160ff02191690831515021790555050565b600082825260208201905092915050565b7f696e76616c696420696e74657266616365207265717565737400000000000000600082015250565b6000610247601983610200565b915061025282610211565b602082019050919050565b600060208201905081810360008301526102768161023a565b9050919050565b610e52806200028d6000396000f3fe608060405234801561001057600080fd5b506004361061007d5760003560e01c80632f745c591161005b5780632f745c59146100ec5780634f6ccce71461011c5780636352211e1461014c57806370a082311461017c5761007d565b806301ffc9a71461008257806318160ddd146100b257806323b872dd146100d0575b600080fd5b61009c600480360381019061009791906107f1565b6101ac565b6040516100a99190610839565b60405180910390f35b6100ba610213565b6040516100c7919061086d565b60405180910390f35b6100ea60048036038101906100e59190610912565b610220565b005b61010660048036038101906101019190610965565b610230565b604051610113919061086d565b60405180910390f35b610136600480360381019061013191906109a5565b6102e0565b604051610143919061086d565b60405180910390f35b610166600480360381019061016191906109a5565b610351565b60405161017391906109e1565b60405180910390f35b610196600480360381019061019191906109fc565b610403565b6040516101a3919061086d565b60405180910390f35b6000806000837bffffffffffffffffffffffffffffffffffffffffffffffffffffffff19167bffffffffffffffffffffffffffffffffffffffffffffffffffffffff1916815260200190815260200160002060009054906101000a900460ff169050919050565b6000600380549050905090565b61022b8383836104c2565b505050565b600061023b83610403565b821061027c576040517f08c379a000000000000000000000000000000000000000000000000000000000815260040161027390610a86565b60405180910390fd5b600560008473ffffffffffffffffffffffffffffffffffffffff1673ffffffffffffffffffffffffffffffffffffffff16815260200190815260200160002082815481106102cd576102cc610aa6565b5b9060005260206000200154905092915050565b60006102ea610213565b821061032b576040517f08c379a000000000000000000000000000000000000000000000000000000000815260040161032290610b21565b60405180910390fd5b6003828154811061033f5761033e610aa6565b5b90600052602060002001549050919050565b6000806001600084815260200190815260200160002060009054906101000a900473ffffffffffffffffffffffffffffffffffffffff169050600073ffffffffffffffffffffffffffffffffffffffff168173ffffffffffffffffffffffffffffffffffffffff1614156103fa576040517f08c379a00000000000000000000000000000000000000000000000000000000081526004016103f190610bb3565b60405180910390fd5b80915050919050565b60008073ffffffffffffffffffffffffffffffffffffffff168273ffffffffffffffffffffffffffffffffffffffff161415610474576040517f08c379a000000000000000000000000000000000000000000000000000000000815260040161046b90610bb3565b60405180910390fd5b6104bb600260008473ffffffffffffffffffffffffffffffffffffffff1673ffffffffffffffffffffffffffffffffffffffff1681526020019081526020016000206106e8565b9050919050565b600073ffffffffffffffffffffffffffffffffffffffff168273ffffffffffffffffffffffffffffffffffffffff161415610532576040517f08c379a000000000000000000000000000000000000000000000000000000000815260040161052990610c45565b60405180910390fd5b8273ffffffffffffffffffffffffffffffffffffffff1661055282610351565b73ffffffffffffffffffffffffffffffffffffffff16146105a8576040517f08c379a000000000000000000000000000000000000000000000000000000000815260040161059f90610cd7565b60405180910390fd5b6105ef600260008573ffffffffffffffffffffffffffffffffffffffff1673ffffffffffffffffffffffffffffffffffffffff1681526020019081526020016000206106f6565b610636600260008473ffffffffffffffffffffffffffffffffffffffff1673ffffffffffffffffffffffffffffffffffffffff168152602001908152602001600020610719565b816001600083815260200190815260200160002060006101000a81548173ffffffffffffffffffffffffffffffffffffffff021916908373ffffffffffffffffffffffffffffffffffffffff160217905550808273ffffffffffffffffffffffffffffffffffffffff168473ffffffffffffffffffffffffffffffffffffffff167fddf252ad1be2c89b69c2b068fc378daa952ba7f163c4a11628f55a4df523b3ef60405160405180910390a4505050565b600081600001549050919050565b61070e6001826000015461073590919063ffffffff16565b816000018190555050565b6001816000015461072a9190610d26565b816000018190555050565b60008282111561077a576040517f08c379a000000000000000000000000000000000000000000000000000000000815260040161077190610dc8565b60405180910390fd5b600082846107889190610de8565b90508091505092915050565b600080fd5b60007fffffffff0000000000000000000000000000000000000000000000000000000082169050919050565b6107ce81610799565b81146107d957600080fd5b50565b6000813590506107eb816107c5565b92915050565b60006020828403121561080757610806610794565b5b6000610815848285016107dc565b91505092915050565b60008115159050919050565b6108338161081e565b82525050565b600060208201905061084e600083018461082a565b92915050565b6000819050919050565b61086781610854565b82525050565b6000602082019050610882600083018461085e565b92915050565b600073ffffffffffffffffffffffffffffffffffffffff82169050919050565b60006108b382610888565b9050919050565b6108c3816108a8565b81146108ce57600080fd5b50565b6000813590506108e0816108ba565b92915050565b6108ef81610854565b81146108fa57600080fd5b50565b60008135905061090c816108e6565b92915050565b60008060006060848603121561092b5761092a610794565b5b6000610939868287016108d1565b935050602061094a868287016108d1565b925050604061095b868287016108fd565b9150509250925092565b6000806040838503121561097c5761097b610794565b5b600061098a858286016108d1565b925050602061099b858286016108fd565b9150509250929050565b6000602082840312156109bb576109ba610794565b5b60006109c9848285016108fd565b91505092915050565b6109db816108a8565b82525050565b60006020820190506109f660008301846109d2565b92915050565b600060208284031215610a1257610a11610794565b5b6000610a20848285016108d1565b91505092915050565b600082825260208201905092915050565b7f6f776e657220696e646578206973206f7574206f6620626f756e647321000000600082015250565b6000610a70601d83610a29565b9150610a7b82610a3a565b602082019050919050565b60006020820190508181036000830152610a9f81610a63565b9050919050565b7f4e487b7100000000000000000000000000000000000000000000000000000000600052603260045260246000fd5b7f676c6f62616c20696e646578206973206f7574206f6620626f756e6473000000600082015250565b6000610b0b601d83610a29565b9150610b1682610ad5565b602082019050919050565b60006020820190508181036000830152610b3a81610afe565b9050919050565b7f6f776e657220717565727920666f72206e6f6e206578697374656e7420746f6b60008201527f656e000000000000000000000000000000000000000000000000000000000000602082015250565b6000610b9d602283610a29565b9150610ba882610b41565b604082019050919050565b60006020820190508181036000830152610bcc81610b90565b9050919050565b7f4572726f72202d20455243373231205472616e7366657220746f20746865207a60008201527f65726f2061646472657373000000000000000000000000000000000000000000602082015250565b6000610c2f602b83610a29565b9150610c3a82610bd3565b604082019050919050565b60006020820190508181036000830152610c5e81610c22565b9050919050565b7f547279696e6720746f207472616e73666572206120746f6b656e20746f20746860008201527f652061646472657373206f6620746865206f776e657200000000000000000000602082015250565b6000610cc1603683610a29565b9150610ccc82610c65565b604082019050919050565b60006020820190508181036000830152610cf081610cb4565b9050919050565b7f4e487b7100000000000000000000000000000000000000000000000000000000600052601160045260246000fd5b6000610d3182610854565b9150610d3c83610854565b9250827fffffffffffffffffffffffffffffffffffffffffffffffffffffffffffffffff03821115610d7157610d70610cf7565b5b828201905092915050565b7f536166656d6174683a205375627472616374696f6e206f766572666c6f770000600082015250565b6000610db2601e83610a29565b9150610dbd82610d7c565b602082019050919050565b60006020820190508181036000830152610de181610da5565b9050919050565b6000610df382610854565b9150610dfe83610854565b925082821015610e1157610e10610cf7565b5b82820390509291505056fea2646970667358221220ad464c8ba0d1c92a6793b61b04480de223295607bdce3e2ffbd5128144e3192064736f6c63430008090033",
  "immutableReferences": {},
  "source": "// SPDX-License-Identifier: MIT\npragma solidity ^0.8.0;\n\nimport \"./ERC721.sol\";\n\nimport './interfaces/IERC721Enumerable.sol';\n\ncontract ERC721Enumerable is ERC721, IERC721Enumerable {\n    \n    uint256[] private _allTokens;\n    mapping(uint256 => uint256) private _allTokensIndex;\n    mapping(address => uint256[]) private _ownedTokens;\n    mapping(uint256 => uint256) private _ownedTokensIndex;\n\n    constructor() {\n        _registerInterface(bytes4(keccak256('totalSupply(bytes4)')^\n        keccak256('tokenByIndex(bytes4)')^keccak256('tokenOfByOwnerByIndex(bytes4)')));\n    }\n\n    function _mint(address to, uint tokenId) internal override (ERC721) {\n        super._mint(to, tokenId);\n        _addTokensToAllTokenEnumeration(tokenId);\n        _addTokensToOwnerEnumeration(to, tokenId);\n    }\n    \n    function _addTokensToAllTokenEnumeration(uint256 tokenId) private {\n        _allTokensIndex[tokenId] = _allTokens.length;\n        _allTokens.push(tokenId);\n    }\n    \n    function _addTokensToOwnerEnumeration(address to, uint256 tokenId) private {\n        _ownedTokensIndex[tokenId] = _allTokens.length;\n        _ownedTokens[to].push(tokenId);\n    }\n    \n    function tokenByIndex(uint index) public override view  returns(uint) {\n        require(index < totalSupply(), 'global index is out of bounds');\n        return _allTokens[index];    \n    }\n    \n    function tokenOfOwnerByIndex(address owner, uint index) public override view returns (uint256) {\n        require(index < balanceOf(owner), 'owner index is out of bounds!');\n        return _ownedTokens[owner][index];\n    }\n    \n    function totalSupply() public override view  returns(uint256) {\n        return _allTokens.length;\n    }\n    \n}\n",
  "sourcePath": "/Users/kristjan/Desktop/nft-marketplace/nft-marketplace/src/contracts/ERC721Enumerable.sol",
  "compiler": {
    "name": "solc",
    "version": "0.8.9+commit.e5eed63a.Emscripten.clang"
  },
  "schemaVersion": "3.4.3",
  "updatedAt": "2021-11-03T15:47:37.971Z",
  "devdoc": {
    "kind": "dev",
    "methods": {},
    "version": 1
  },
  "userdoc": {
    "kind": "user",
    "methods": {},
    "version": 1
  }
}