{
  "contractName": "ERC721",
  "abi": [
    {
      "inputs": [],
      "stateMutability": "nonpayable",
      "type": "constructor"
    },
    {
      "anonymous": false,
      "inputs": [
        {
          "indexed": true,
          "internalType": "address",
          "name": "_owner",
          "type": "address"
        },
        {
          "indexed": true,
          "internalType": "address",
          "name": "_approved",
          "type": "address"
        },
        {
          "indexed": true,
          "internalType": "uint256",
          "name": "_tokenId",
          "type": "uint256"
        }
      ],
      "name": "Approval",
      "type": "event"
    },
    {
      "anonymous": false,
      "inputs": [
        {
          "indexed": true,
          "internalType": "address",
          "name": "_from",
          "type": "address"
        },
        {
          "indexed": true,
          "internalType": "address",
          "name": "_to",
          "type": "address"
        },
        {
          "indexed": true,
          "internalType": "uint256",
          "name": "_tokenId",
          "type": "uint256"
        }
      ],
      "name": "Transfer",
      "type": "event"
    },
    {
      "inputs": [
        {
          "internalType": "bytes4",
          "name": "interfaceId",
          "type": "bytes4"
        }
      ],
      "name": "supportsInterface",
      "outputs": [
        {
          "internalType": "bool",
          "name": "",
          "type": "bool"
        }
      ],
      "stateMutability": "view",
      "type": "function"
    },
    {
      "inputs": [
        {
          "internalType": "address",
          "name": "_owner",
          "type": "address"
        }
      ],
      "name": "balanceOf",
      "outputs": [
        {
          "internalType": "uint256",
          "name": "",
          "type": "uint256"
        }
      ],
      "stateMutability": "view",
      "type": "function"
    },
    {
      "inputs": [
        {
          "internalType": "uint256",
          "name": "_tokenId",
          "type": "uint256"
        }
      ],
      "name": "ownerOf",
      "outputs": [
        {
          "internalType": "address",
          "name": "",
          "type": "address"
        }
      ],
      "stateMutability": "view",
      "type": "function"
    },
    {
      "inputs": [
        {
          "internalType": "address",
          "name": "_from",
          "type": "address"
        },
        {
          "internalType": "address",
          "name": "_to",
          "type": "address"
        },
        {
          "internalType": "uint256",
          "name": "_tokenId",
          "type": "uint256"
        }
      ],
      "name": "transferFrom",
      "outputs": [],
      "stateMutability": "nonpayable",
      "type": "function"
    }
  ],
  "bytecode": "0x608060405234801561001057600080fd5b506100407f01ffc9a7a5cef8baa21ed3c5c0d7e23accb804b619e9333b597f47a0d84076e26100b860201b60201c565b6100b37f22c82707ba960a14c7592ffb6b8cfaa073fed0048a84cc7fa41f6b5bd8e7f2e47f3a6eb71757dfc6e784c1459d26270140c2c147d95ca985c80026fc5301c3eca17f8a7e378434598edc36d108689a030cbc9d7d465de4f74c71bae1028eed6a881b18186100b860201b60201c565b61020a565b63ffffffff60e01b817bffffffffffffffffffffffffffffffffffffffffffffffffffffffff19161415610121576040517f08c379a0000000000000000000000000000000000000000000000000000000008152600401610118906101ea565b60405180910390fd5b6001600080837bffffffffffffffffffffffffffffffffffffffffffffffffffffffff19167bffffffffffffffffffffffffffffffffffffffffffffffffffffffff1916815260200190815260200160002060006101000a81548160ff02191690831515021790555050565b600082825260208201905092915050565b7f696e76616c696420696e74657266616365207265717565737400000000000000600082015250565b60006101d460198361018d565b91506101df8261019e565b602082019050919050565b60006020820190508181036000830152610203816101c7565b9050919050565b610a2f806102196000396000f3fe608060405234801561001057600080fd5b506004361061004c5760003560e01c806301ffc9a71461005157806323b872dd146100815780636352211e1461009d57806370a08231146100cd575b600080fd5b61006b60048036038101906100669190610581565b6100fd565b60405161007891906105c9565b60405180910390f35b61009b60048036038101906100969190610678565b610164565b005b6100b760048036038101906100b291906106cb565b610174565b6040516100c49190610707565b60405180910390f35b6100e760048036038101906100e29190610722565b610226565b6040516100f4919061075e565b60405180910390f35b6000806000837bffffffffffffffffffffffffffffffffffffffffffffffffffffffff19167bffffffffffffffffffffffffffffffffffffffffffffffffffffffff1916815260200190815260200160002060009054906101000a900460ff169050919050565b61016f8383836102de565b505050565b6000806001600084815260200190815260200160002060009054906101000a900473ffffffffffffffffffffffffffffffffffffffff169050600073ffffffffffffffffffffffffffffffffffffffff168173ffffffffffffffffffffffffffffffffffffffff16141561021d576040517f08c379a0000000000000000000000000000000000000000000000000000000008152600401610214906107fc565b60405180910390fd5b80915050919050565b60008073ffffffffffffffffffffffffffffffffffffffff168273ffffffffffffffffffffffffffffffffffffffff161415610297576040517f08c379a000000000000000000000000000000000000000000000000000000000815260040161028e906107fc565b60405180910390fd5b600260008373ffffffffffffffffffffffffffffffffffffffff1673ffffffffffffffffffffffffffffffffffffffff168152602001908152602001600020549050919050565b600073ffffffffffffffffffffffffffffffffffffffff168273ffffffffffffffffffffffffffffffffffffffff16141561034e576040517f08c379a00000000000000000000000000000000000000000000000000000000081526004016103459061088e565b60405180910390fd5b8273ffffffffffffffffffffffffffffffffffffffff1661036e82610174565b73ffffffffffffffffffffffffffffffffffffffff16146103c4576040517f08c379a00000000000000000000000000000000000000000000000000000000081526004016103bb90610920565b60405180910390fd5b6001600260008573ffffffffffffffffffffffffffffffffffffffff1673ffffffffffffffffffffffffffffffffffffffff1681526020019081526020016000206000828254610414919061096f565b925050819055506001600260008473ffffffffffffffffffffffffffffffffffffffff1673ffffffffffffffffffffffffffffffffffffffff168152602001908152602001600020600082825461046b91906109a3565b92505081905550816001600083815260200190815260200160002060006101000a81548173ffffffffffffffffffffffffffffffffffffffff021916908373ffffffffffffffffffffffffffffffffffffffff160217905550808273ffffffffffffffffffffffffffffffffffffffff168473ffffffffffffffffffffffffffffffffffffffff167fddf252ad1be2c89b69c2b068fc378daa952ba7f163c4a11628f55a4df523b3ef60405160405180910390a4505050565b600080fd5b60007fffffffff0000000000000000000000000000000000000000000000000000000082169050919050565b61055e81610529565b811461056957600080fd5b50565b60008135905061057b81610555565b92915050565b60006020828403121561059757610596610524565b5b60006105a58482850161056c565b91505092915050565b60008115159050919050565b6105c3816105ae565b82525050565b60006020820190506105de60008301846105ba565b92915050565b600073ffffffffffffffffffffffffffffffffffffffff82169050919050565b600061060f826105e4565b9050919050565b61061f81610604565b811461062a57600080fd5b50565b60008135905061063c81610616565b92915050565b6000819050919050565b61065581610642565b811461066057600080fd5b50565b6000813590506106728161064c565b92915050565b60008060006060848603121561069157610690610524565b5b600061069f8682870161062d565b93505060206106b08682870161062d565b92505060406106c186828701610663565b9150509250925092565b6000602082840312156106e1576106e0610524565b5b60006106ef84828501610663565b91505092915050565b61070181610604565b82525050565b600060208201905061071c60008301846106f8565b92915050565b60006020828403121561073857610737610524565b5b60006107468482850161062d565b91505092915050565b61075881610642565b82525050565b6000602082019050610773600083018461074f565b92915050565b600082825260208201905092915050565b7f6f776e657220717565727920666f72206e6f6e206578697374656e7420746f6b60008201527f656e000000000000000000000000000000000000000000000000000000000000602082015250565b60006107e6602283610779565b91506107f18261078a565b604082019050919050565b60006020820190508181036000830152610815816107d9565b9050919050565b7f4572726f72202d20455243373231205472616e7366657220746f20746865207a60008201527f65726f2061646472657373000000000000000000000000000000000000000000602082015250565b6000610878602b83610779565b91506108838261081c565b604082019050919050565b600060208201905081810360008301526108a78161086b565b9050919050565b7f547279696e6720746f207472616e73666572206120746f6b656e20746f20746860008201527f652061646472657373206f6620746865206f776e657200000000000000000000602082015250565b600061090a603683610779565b9150610915826108ae565b604082019050919050565b60006020820190508181036000830152610939816108fd565b9050919050565b7f4e487b7100000000000000000000000000000000000000000000000000000000600052601160045260246000fd5b600061097a82610642565b915061098583610642565b92508282101561099857610997610940565b5b828203905092915050565b60006109ae82610642565b91506109b983610642565b9250827fffffffffffffffffffffffffffffffffffffffffffffffffffffffffffffffff038211156109ee576109ed610940565b5b82820190509291505056fea26469706673582212202aabc179501fc6a48717a6738f373015c9b42c58ec552a7228a416c9fe4cda9164736f6c63430008090033",
  "immutableReferences": {},
  "source": "// SPDX-License-Identifier: MIT\r\npragma solidity ^0.8.0;\r\n\r\nimport './ERC165.sol';\r\nimport './interfaces/IERC721.sol';\r\n\r\ncontract ERC721 is ERC165, IERC721 {\r\n    \r\n    mapping(uint => address) private _tokenOwner;\r\n    mapping(address => uint) private _OwnedTokenCount;\r\n    \r\n    constructor() {\r\n        _registerInterface(bytes4(keccak256('balanceOf(bytes4)')^\r\n            keccak256('ownerOf(bytes4)')^keccak256('transferFrom(bytes4)')));\r\n    }\r\n    \r\n    function balanceOf(address _owner) public view override returns (uint) {\r\n        require(_owner != address (0), 'owner query for non existent token');\r\n        return _OwnedTokenCount[_owner];\r\n    }\r\n\r\n    function ownerOf(uint256 _tokenId) public view override returns (address) {\r\n        address owner =  _tokenOwner[_tokenId];\r\n        require(owner != address (0), 'owner query for non existent token');\r\n        return owner;\r\n    }\r\n    \r\n    function _exists(uint tokenId) internal view returns(bool) {\r\n        address owner = _tokenOwner[tokenId];\r\n        return owner != address (0);\r\n    }\r\n    \r\n    function _mint(address to, uint tokenId) internal virtual {\r\n        require(to != address(0), 'ERC721: minting to the zero address');\r\n        require(!_exists(tokenId), 'ERC721: token already minted');\r\n            \r\n        _tokenOwner[tokenId] = to;\r\n        _OwnedTokenCount[to] += 1;\r\n        \r\n        emit Transfer(address (0), to, tokenId);\r\n    }\r\n    \r\n    function _transferFrom(address _from, address _to, uint256 _tokenId) internal {\r\n        require(_to != address (0), 'Error - ERC721 Transfer to the zero address');\r\n        require(ownerOf(_tokenId) == _from, 'Trying to transfer a token to the address of the owner');\r\n        \r\n        _OwnedTokenCount[_from] -= 1;\r\n        _OwnedTokenCount[_to] += 1;\r\n        \r\n        _tokenOwner[_tokenId] = _to;\r\n        \r\n        emit Transfer(_from, _to, _tokenId);\r\n    }\r\n    \r\n    function transferFrom(address _from, address _to, uint256 _tokenId) override public {\r\n        _transferFrom(_from, _to, _tokenId);\r\n    }\r\n   \r\n}\r\n",
  "sourcePath": "C:\\Dev\\nft-marketplace-starter-kit\\src\\contracts\\ERC721.sol",
  "compiler": {
    "name": "solc",
    "version": "0.8.9+commit.e5eed63a.Emscripten.clang"
  },
  "schemaVersion": "3.4.3",
  "updatedAt": "2021-10-26T17:03:35.046Z",
  "devdoc": {
    "kind": "dev",
    "methods": {},
    "version": 1
  },
  "userdoc": {
    "kind": "user",
    "methods": {},
    "version": 1
  }
}