{
  "contractName": "KryptoBird",
  "abi": [
    {
      "inputs": [],
      "stateMutability": "nonpayable",
      "type": "constructor"
    },
    {
      "anonymous": false,
      "inputs": [
        {
          "indexed": true,
          "internalType": "address",
          "name": "_owner",
          "type": "address"
        },
        {
          "indexed": true,
          "internalType": "address",
          "name": "_approved",
          "type": "address"
        },
        {
          "indexed": true,
          "internalType": "uint256",
          "name": "_tokenId",
          "type": "uint256"
        }
      ],
      "name": "Approval",
      "type": "event"
    },
    {
      "anonymous": false,
      "inputs": [
        {
          "indexed": true,
          "internalType": "address",
          "name": "_from",
          "type": "address"
        },
        {
          "indexed": true,
          "internalType": "address",
          "name": "_to",
          "type": "address"
        },
        {
          "indexed": true,
          "internalType": "uint256",
          "name": "_tokenId",
          "type": "uint256"
        }
      ],
      "name": "Transfer",
      "type": "event"
    },
    {
      "inputs": [
        {
          "internalType": "address",
          "name": "_owner",
          "type": "address"
        }
      ],
      "name": "balanceOf",
      "outputs": [
        {
          "internalType": "uint256",
          "name": "",
          "type": "uint256"
        }
      ],
      "stateMutability": "view",
      "type": "function",
      "constant": true
    },
    {
      "inputs": [
        {
          "internalType": "uint256",
          "name": "",
          "type": "uint256"
        }
      ],
      "name": "kryptoBirdz",
      "outputs": [
        {
          "internalType": "string",
          "name": "",
          "type": "string"
        }
      ],
      "stateMutability": "view",
      "type": "function",
      "constant": true
    },
    {
      "inputs": [],
      "name": "name",
      "outputs": [
        {
          "internalType": "string",
          "name": "",
          "type": "string"
        }
      ],
      "stateMutability": "view",
      "type": "function",
      "constant": true
    },
    {
      "inputs": [
        {
          "internalType": "uint256",
          "name": "_tokenId",
          "type": "uint256"
        }
      ],
      "name": "ownerOf",
      "outputs": [
        {
          "internalType": "address",
          "name": "",
          "type": "address"
        }
      ],
      "stateMutability": "view",
      "type": "function",
      "constant": true
    },
    {
      "inputs": [
        {
          "internalType": "bytes4",
          "name": "interfaceId",
          "type": "bytes4"
        }
      ],
      "name": "supportsInterface",
      "outputs": [
        {
          "internalType": "bool",
          "name": "",
          "type": "bool"
        }
      ],
      "stateMutability": "view",
      "type": "function",
      "constant": true
    },
    {
      "inputs": [],
      "name": "symbol",
      "outputs": [
        {
          "internalType": "string",
          "name": "",
          "type": "string"
        }
      ],
      "stateMutability": "view",
      "type": "function",
      "constant": true
    },
    {
      "inputs": [
        {
          "internalType": "uint256",
          "name": "index",
          "type": "uint256"
        }
      ],
      "name": "tokenByIndex",
      "outputs": [
        {
          "internalType": "uint256",
          "name": "",
          "type": "uint256"
        }
      ],
      "stateMutability": "view",
      "type": "function",
      "constant": true
    },
    {
      "inputs": [
        {
          "internalType": "address",
          "name": "owner",
          "type": "address"
        },
        {
          "internalType": "uint256",
          "name": "index",
          "type": "uint256"
        }
      ],
      "name": "tokenOfOwnerByIndex",
      "outputs": [
        {
          "internalType": "uint256",
          "name": "",
          "type": "uint256"
        }
      ],
      "stateMutability": "view",
      "type": "function",
      "constant": true
    },
    {
      "inputs": [],
      "name": "totalSupply",
      "outputs": [
        {
          "internalType": "uint256",
          "name": "",
          "type": "uint256"
        }
      ],
      "stateMutability": "view",
      "type": "function",
      "constant": true
    },
    {
      "inputs": [
        {
          "internalType": "address",
          "name": "_from",
          "type": "address"
        },
        {
          "internalType": "address",
          "name": "_to",
          "type": "address"
        },
        {
          "internalType": "uint256",
          "name": "_tokenId",
          "type": "uint256"
        }
      ],
      "name": "transferFrom",
      "outputs": [],
      "stateMutability": "nonpayable",
      "type": "function"
    },
    {
      "inputs": [
        {
          "internalType": "string",
          "name": "_kryptoBird",
          "type": "string"
        }
      ],
      "name": "mint",
      "outputs": [],
      "stateMutability": "nonpayable",
      "type": "function"
    }
  ],
  "bytecode": "0x60806040523480156200001157600080fd5b506040518060400160405280600a81526020017f4b727970746f42697264000000000000000000000000000000000000000000008152506040518060400160405280600681526020017f4b424952445a00000000000000000000000000000000000000000000000000008152508181620000b17f01ffc9a7a5cef8baa21ed3c5c0d7e23accb804b619e9333b597f47a0d84076e26200022a60201b60201c565b620001047f13b182f4c0e5b2efbac0efe6cf6d756c8b89f4b79c5707a043ed9ea740574ee97f7feaf19471f34a12a7eaf32d5f3090aa2260ea8624dc8a138e74e0bf0f623076186200022a60201b60201c565b81600190805190602001906200011c92919062000302565b5080600290805190602001906200013592919062000302565b505050620001ad7f22c82707ba960a14c7592ffb6b8cfaa073fed0048a84cc7fa41f6b5bd8e7f2e47f3a6eb71757dfc6e784c1459d26270140c2c147d95ca985c80026fc5301c3eca17f8a7e378434598edc36d108689a030cbc9d7d465de4f74c71bae1028eed6a881b18186200022a60201b60201c565b620002227febb0fb4f9e2627dbad3e9c12b5454fd599da265d213f7b5a193f4102eefd66007f6da5e1284143cdd2d15038a59bde3be031250f00291d64494c12d967b3a4e0c37fc53637662700e6c65104059db8bba34439e0c32483ab7c34e3ccae52c739549518186200022a60201b60201c565b50506200049a565b63ffffffff60e01b817bffffffffffffffffffffffffffffffffffffffffffffffffffffffff1916141562000296576040517f08c379a00000000000000000000000000000000000000000000000000000000081526004016200028d9062000413565b60405180910390fd5b6001600080837bffffffffffffffffffffffffffffffffffffffffffffffffffffffff19167bffffffffffffffffffffffffffffffffffffffffffffffffffffffff1916815260200190815260200160002060006101000a81548160ff02191690831515021790555050565b828054620003109062000464565b90600052602060002090601f01602090048101928262000334576000855562000380565b82601f106200034f57805160ff191683800117855562000380565b8280016001018555821562000380579182015b828111156200037f57825182559160200191906001019062000362565b5b5090506200038f919062000393565b5090565b5b80821115620003ae57600081600090555060010162000394565b5090565b600082825260208201905092915050565b7f696e76616c696420696e74657266616365207265717565737400000000000000600082015250565b6000620003fb601983620003b2565b91506200040882620003c3565b602082019050919050565b600060208201905081810360008301526200042e81620003ec565b9050919050565b7f4e487b7100000000000000000000000000000000000000000000000000000000600052602260045260246000fd5b600060028204905060018216806200047d57607f821691505b6020821081141562000494576200049362000435565b5b50919050565b611a0c80620004aa6000396000f3fe608060405234801561001057600080fd5b50600436106100a95760003560e01c80634f6ccce7116100715780634f6ccce7146101665780636352211e1461019657806370a08231146101c657806393ab6e56146101f657806395d89b4114610226578063d85d3d2714610244576100a9565b806301ffc9a7146100ae57806306fdde03146100de57806318160ddd146100fc57806323b872dd1461011a5780632f745c5914610136575b600080fd5b6100c860048036038101906100c39190610f3f565b610260565b6040516100d59190610f87565b60405180910390f35b6100e66102c7565b6040516100f3919061103b565b60405180910390f35b610104610359565b6040516101119190611076565b60405180910390f35b610134600480360381019061012f919061111b565b610366565b005b610150600480360381019061014b919061116e565b610376565b60405161015d9190611076565b60405180910390f35b610180600480360381019061017b91906111ae565b610426565b60405161018d9190611076565b60405180910390f35b6101b060048036038101906101ab91906111ae565b610497565b6040516101bd91906111ea565b60405180910390f35b6101e060048036038101906101db9190611205565b610549565b6040516101ed9190611076565b60405180910390f35b610210600480360381019061020b91906111ae565b610608565b60405161021d919061103b565b60405180910390f35b61022e6106b4565b60405161023b919061103b565b60405180910390f35b61025e60048036038101906102599190611367565b610746565b005b6000806000837bffffffffffffffffffffffffffffffffffffffffffffffffffffffff19167bffffffffffffffffffffffffffffffffffffffffffffffffffffffff1916815260200190815260200160002060009054906101000a900460ff169050919050565b6060600180546102d6906113df565b80601f0160208091040260200160405190810160405280929190818152602001828054610302906113df565b801561034f5780601f106103245761010080835404028352916020019161034f565b820191906000526020600020905b81548152906001019060200180831161033257829003601f168201915b5050505050905090565b6000600580549050905090565b610371838383610849565b505050565b600061038183610549565b82106103c2576040517f08c379a00000000000000000000000000000000000000000000000000000000081526004016103b99061145d565b60405180910390fd5b600760008473ffffffffffffffffffffffffffffffffffffffff1673ffffffffffffffffffffffffffffffffffffffff16815260200190815260200160002082815481106104135761041261147d565b5b9060005260206000200154905092915050565b6000610430610359565b8210610471576040517f08c379a0000000000000000000000000000000000000000000000000000000008152600401610468906114f8565b60405180910390fd5b600582815481106104855761048461147d565b5b90600052602060002001549050919050565b6000806003600084815260200190815260200160002060009054906101000a900473ffffffffffffffffffffffffffffffffffffffff169050600073ffffffffffffffffffffffffffffffffffffffff168173ffffffffffffffffffffffffffffffffffffffff161415610540576040517f08c379a00000000000000000000000000000000000000000000000000000000081526004016105379061158a565b60405180910390fd5b80915050919050565b60008073ffffffffffffffffffffffffffffffffffffffff168273ffffffffffffffffffffffffffffffffffffffff1614156105ba576040517f08c379a00000000000000000000000000000000000000000000000000000000081526004016105b19061158a565b60405180910390fd5b610601600460008473ffffffffffffffffffffffffffffffffffffffff1673ffffffffffffffffffffffffffffffffffffffff168152602001908152602001600020610a6f565b9050919050565b6009818154811061061857600080fd5b906000526020600020016000915090508054610633906113df565b80601f016020809104026020016040519081016040528092919081815260200182805461065f906113df565b80156106ac5780601f10610681576101008083540402835291602001916106ac565b820191906000526020600020905b81548152906001019060200180831161068f57829003601f168201915b505050505081565b6060600280546106c3906113df565b80601f01602080910402602001604051908101604052809291908181526020018280546106ef906113df565b801561073c5780601f106107115761010080835404028352916020019161073c565b820191906000526020600020905b81548152906001019060200180831161071f57829003601f168201915b5050505050905090565b600a8160405161075691906115e6565b908152602001604051809103902060009054906101000a900460ff16156107b2576040517f08c379a00000000000000000000000000000000000000000000000000000000081526004016107a99061166f565b60405180910390fd5b6009819080600181540180825580915050600190039060005260206000200160009091909190915090805190602001906107ed929190610e30565b506000600160098054905061080291906116be565b905061080e3382610a7d565b6001600a8360405161082091906115e6565b908152602001604051809103902060006101000a81548160ff0219169083151502179055505050565b600073ffffffffffffffffffffffffffffffffffffffff168273ffffffffffffffffffffffffffffffffffffffff1614156108b9576040517f08c379a00000000000000000000000000000000000000000000000000000000081526004016108b090611764565b60405180910390fd5b8273ffffffffffffffffffffffffffffffffffffffff166108d982610497565b73ffffffffffffffffffffffffffffffffffffffff161461092f576040517f08c379a0000000000000000000000000000000000000000000000000000000008152600401610926906117f6565b60405180910390fd5b610976600460008573ffffffffffffffffffffffffffffffffffffffff1673ffffffffffffffffffffffffffffffffffffffff168152602001908152602001600020610a9e565b6109bd600460008473ffffffffffffffffffffffffffffffffffffffff1673ffffffffffffffffffffffffffffffffffffffff168152602001908152602001600020610ac1565b816003600083815260200190815260200160002060006101000a81548173ffffffffffffffffffffffffffffffffffffffff021916908373ffffffffffffffffffffffffffffffffffffffff160217905550808273ffffffffffffffffffffffffffffffffffffffff168473ffffffffffffffffffffffffffffffffffffffff167fddf252ad1be2c89b69c2b068fc378daa952ba7f163c4a11628f55a4df523b3ef60405160405180910390a4505050565b600081600001549050919050565b610a878282610add565b610a9081610c8f565b610a9a8282610cd8565b5050565b610ab660018260000154610d5f90919063ffffffff16565b816000018190555050565b60018160000154610ad29190611816565b816000018190555050565b600073ffffffffffffffffffffffffffffffffffffffff168273ffffffffffffffffffffffffffffffffffffffff161415610b4d576040517f08c379a0000000000000000000000000000000000000000000000000000000008152600401610b44906118de565b60405180910390fd5b610b5681610dbe565b15610b96576040517f08c379a0000000000000000000000000000000000000000000000000000000008152600401610b8d9061194a565b60405180910390fd5b816003600083815260200190815260200160002060006101000a81548173ffffffffffffffffffffffffffffffffffffffff021916908373ffffffffffffffffffffffffffffffffffffffff160217905550610c2f600460008473ffffffffffffffffffffffffffffffffffffffff1673ffffffffffffffffffffffffffffffffffffffff168152602001908152602001600020610ac1565b808273ffffffffffffffffffffffffffffffffffffffff16600073ffffffffffffffffffffffffffffffffffffffff167fddf252ad1be2c89b69c2b068fc378daa952ba7f163c4a11628f55a4df523b3ef60405160405180910390a45050565b6005805490506006600083815260200190815260200160002081905550600581908060018154018082558091505060019003906000526020600020016000909190919091505550565b6005805490506008600083815260200190815260200160002081905550600760008373ffffffffffffffffffffffffffffffffffffffff1673ffffffffffffffffffffffffffffffffffffffff1681526020019081526020016000208190806001815401808255809150506001900390600052602060002001600090919091909150555050565b600082821115610da4576040517f08c379a0000000000000000000000000000000000000000000000000000000008152600401610d9b906119b6565b60405180910390fd5b60008284610db291906116be565b90508091505092915050565b6000806003600084815260200190815260200160002060009054906101000a900473ffffffffffffffffffffffffffffffffffffffff169050600073ffffffffffffffffffffffffffffffffffffffff168173ffffffffffffffffffffffffffffffffffffffff161415915050919050565b828054610e3c906113df565b90600052602060002090601f016020900481019282610e5e5760008555610ea5565b82601f10610e7757805160ff1916838001178555610ea5565b82800160010185558215610ea5579182015b82811115610ea4578251825591602001919060010190610e89565b5b509050610eb29190610eb6565b5090565b5b80821115610ecf576000816000905550600101610eb7565b5090565b6000604051905090565b600080fd5b600080fd5b60007fffffffff0000000000000000000000000000000000000000000000000000000082169050919050565b610f1c81610ee7565b8114610f2757600080fd5b50565b600081359050610f3981610f13565b92915050565b600060208284031215610f5557610f54610edd565b5b6000610f6384828501610f2a565b91505092915050565b60008115159050919050565b610f8181610f6c565b82525050565b6000602082019050610f9c6000830184610f78565b92915050565b600081519050919050565b600082825260208201905092915050565b60005b83811015610fdc578082015181840152602081019050610fc1565b83811115610feb576000848401525b50505050565b6000601f19601f8301169050919050565b600061100d82610fa2565b6110178185610fad565b9350611027818560208601610fbe565b61103081610ff1565b840191505092915050565b600060208201905081810360008301526110558184611002565b905092915050565b6000819050919050565b6110708161105d565b82525050565b600060208201905061108b6000830184611067565b92915050565b600073ffffffffffffffffffffffffffffffffffffffff82169050919050565b60006110bc82611091565b9050919050565b6110cc816110b1565b81146110d757600080fd5b50565b6000813590506110e9816110c3565b92915050565b6110f88161105d565b811461110357600080fd5b50565b600081359050611115816110ef565b92915050565b60008060006060848603121561113457611133610edd565b5b6000611142868287016110da565b9350506020611153868287016110da565b925050604061116486828701611106565b9150509250925092565b6000806040838503121561118557611184610edd565b5b6000611193858286016110da565b92505060206111a485828601611106565b9150509250929050565b6000602082840312156111c4576111c3610edd565b5b60006111d284828501611106565b91505092915050565b6111e4816110b1565b82525050565b60006020820190506111ff60008301846111db565b92915050565b60006020828403121561121b5761121a610edd565b5b6000611229848285016110da565b91505092915050565b600080fd5b600080fd5b7f4e487b7100000000000000000000000000000000000000000000000000000000600052604160045260246000fd5b61127482610ff1565b810181811067ffffffffffffffff821117156112935761129261123c565b5b80604052505050565b60006112a6610ed3565b90506112b2828261126b565b919050565b600067ffffffffffffffff8211156112d2576112d161123c565b5b6112db82610ff1565b9050602081019050919050565b82818337600083830152505050565b600061130a611305846112b7565b61129c565b90508281526020810184848401111561132657611325611237565b5b6113318482856112e8565b509392505050565b600082601f83011261134e5761134d611232565b5b813561135e8482602086016112f7565b91505092915050565b60006020828403121561137d5761137c610edd565b5b600082013567ffffffffffffffff81111561139b5761139a610ee2565b5b6113a784828501611339565b91505092915050565b7f4e487b7100000000000000000000000000000000000000000000000000000000600052602260045260246000fd5b600060028204905060018216806113f757607f821691505b6020821081141561140b5761140a6113b0565b5b50919050565b7f6f776e657220696e646578206973206f7574206f6620626f756e647321000000600082015250565b6000611447601d83610fad565b915061145282611411565b602082019050919050565b600060208201905081810360008301526114768161143a565b9050919050565b7f4e487b7100000000000000000000000000000000000000000000000000000000600052603260045260246000fd5b7f676c6f62616c20696e646578206973206f7574206f6620626f756e6473000000600082015250565b60006114e2601d83610fad565b91506114ed826114ac565b602082019050919050565b60006020820190508181036000830152611511816114d5565b9050919050565b7f6f776e657220717565727920666f72206e6f6e206578697374656e7420746f6b60008201527f656e000000000000000000000000000000000000000000000000000000000000602082015250565b6000611574602283610fad565b915061157f82611518565b604082019050919050565b600060208201905081810360008301526115a381611567565b9050919050565b600081905092915050565b60006115c082610fa2565b6115ca81856115aa565b93506115da818560208601610fbe565b80840191505092915050565b60006115f282846115b5565b915081905092915050565b7f4572726f72202d206b727970746f4269726420616c726561647920657869737460008201527f7300000000000000000000000000000000000000000000000000000000000000602082015250565b6000611659602183610fad565b9150611664826115fd565b604082019050919050565b600060208201905081810360008301526116888161164c565b9050919050565b7f4e487b7100000000000000000000000000000000000000000000000000000000600052601160045260246000fd5b60006116c98261105d565b91506116d48361105d565b9250828210156116e7576116e661168f565b5b828203905092915050565b7f4572726f72202d20455243373231205472616e7366657220746f20746865207a60008201527f65726f2061646472657373000000000000000000000000000000000000000000602082015250565b600061174e602b83610fad565b9150611759826116f2565b604082019050919050565b6000602082019050818103600083015261177d81611741565b9050919050565b7f547279696e6720746f207472616e73666572206120746f6b656e20746f20746860008201527f652061646472657373206f6620746865206f776e657200000000000000000000602082015250565b60006117e0603683610fad565b91506117eb82611784565b604082019050919050565b6000602082019050818103600083015261180f816117d3565b9050919050565b60006118218261105d565b915061182c8361105d565b9250827fffffffffffffffffffffffffffffffffffffffffffffffffffffffffffffffff038211156118615761186061168f565b5b828201905092915050565b7f4552433732313a206d696e74696e6720746f20746865207a65726f206164647260008201527f6573730000000000000000000000000000000000000000000000000000000000602082015250565b60006118c8602383610fad565b91506118d38261186c565b604082019050919050565b600060208201905081810360008301526118f7816118bb565b9050919050565b7f4552433732313a20746f6b656e20616c7265616479206d696e74656400000000600082015250565b6000611934601c83610fad565b915061193f826118fe565b602082019050919050565b6000602082019050818103600083015261196381611927565b9050919050565b7f536166656d6174683a205375627472616374696f6e206f766572666c6f770000600082015250565b60006119a0601e83610fad565b91506119ab8261196a565b602082019050919050565b600060208201905081810360008301526119cf81611993565b905091905056fea2646970667358221220faf1bc4dc03674e60bf47179b40cb3fcb7c3113f975d413edfca089545c32f3e64736f6c63430008090033",
  "immutableReferences": {},
  "source": "// SPDX-License-Identifier: MIT\npragma solidity ^0.8.0;\n\nimport './ERC721Connector.sol';\n\ncontract KryptoBird is ERC721Connector  {\n    \n    string[] public kryptoBirdz;\n    mapping(string => bool) _kryptoBirdzExists;\n    \n    constructor () ERC721Connector('KryptoBird', 'KBIRDZ') {\n\n    }\n\n    function mint(string memory _kryptoBird) public {\n        require(!_kryptoBirdzExists[_kryptoBird], 'Error - kryptoBird already exists');\n        \n        kryptoBirdz.push(_kryptoBird);\n        uint _id = kryptoBirdz.length - 1;\n\n        _mint(msg.sender, _id);\n\n        _kryptoBirdzExists[_kryptoBird] = true;\n    }\n}",
  "sourcePath": "/Users/kristjan/Desktop/nft-marketplace/nft-marketplace/src/contracts/KryptoBirdz.sol",
  "compiler": {
    "name": "solc",
    "version": "0.8.9+commit.e5eed63a.Emscripten.clang"
  },
  "schemaVersion": "3.4.3",
  "updatedAt": "2021-11-03T15:47:56.113Z",
  "networkType": "ethereum",
  "devdoc": {
    "kind": "dev",
    "methods": {},
    "version": 1
  },
  "userdoc": {
    "kind": "user",
    "methods": {},
    "version": 1
  }
}